{
  "address": "0x8EBF5D011F7924677cAcd50730ff679A03649706",
  "abi": [
    {
      "inputs": [
        {
          "internalType": "address payable",
          "name": "diceGameAddress",
          "type": "address"
        }
      ],
      "stateMutability": "nonpayable",
      "type": "constructor"
    },
    {
      "inputs": [
        {
          "internalType": "address",
          "name": "owner",
          "type": "address"
        }
      ],
      "name": "OwnableInvalidOwner",
      "type": "error"
    },
    {
      "inputs": [
        {
          "internalType": "address",
          "name": "account",
          "type": "address"
        }
      ],
      "name": "OwnableUnauthorizedAccount",
      "type": "error"
    },
    {
      "anonymous": false,
      "inputs": [
        {
          "indexed": true,
          "internalType": "address",
          "name": "previousOwner",
          "type": "address"
        },
        {
          "indexed": true,
          "internalType": "address",
          "name": "newOwner",
          "type": "address"
        }
      ],
      "name": "OwnershipTransferred",
      "type": "event"
    },
    {
      "inputs": [],
      "name": "ROLL_FEE",
      "outputs": [
        {
          "internalType": "uint256",
          "name": "",
          "type": "uint256"
        }
      ],
      "stateMutability": "view",
      "type": "function"
    },
    {
      "inputs": [],
      "name": "diceGame",
      "outputs": [
        {
          "internalType": "contract DiceGame",
          "name": "",
          "type": "address"
        }
      ],
      "stateMutability": "view",
      "type": "function"
    },
    {
      "inputs": [],
      "name": "owner",
      "outputs": [
        {
          "internalType": "address",
          "name": "",
          "type": "address"
        }
      ],
      "stateMutability": "view",
      "type": "function"
    },
    {
      "inputs": [],
      "name": "renounceOwnership",
      "outputs": [],
      "stateMutability": "nonpayable",
      "type": "function"
    },
    {
      "inputs": [],
      "name": "riggedRoll",
      "outputs": [],
      "stateMutability": "nonpayable",
      "type": "function"
    },
    {
      "inputs": [
        {
          "internalType": "address",
          "name": "newOwner",
          "type": "address"
        }
      ],
      "name": "transferOwnership",
      "outputs": [],
      "stateMutability": "nonpayable",
      "type": "function"
    },
    {
      "inputs": [
        {
          "internalType": "address",
          "name": "_addr",
          "type": "address"
        },
        {
          "internalType": "uint256",
          "name": "_amount",
          "type": "uint256"
        }
      ],
      "name": "withdraw",
      "outputs": [],
      "stateMutability": "nonpayable",
      "type": "function"
    },
    {
      "stateMutability": "payable",
      "type": "receive"
    }
  ],
  "transactionHash": "0x708ec8b8e931f4cc672a9dcc1ece77a49509a91801a0909fed5ffe113794920e",
  "args": [
    "0x4F0ddd4CA21f0ea63eB6d133fD242598232A296c"
  ],
  "numDeployments": 1,
  "solcInputHash": "33bc6785452f0b8e11278fac632af0d1",
  "bytecode": "0x608060405234801561001057600080fd5b5060405161089838038061089883398101604081905261002f916100d4565b338061005557604051631e4fbdf760e01b81526000600482015260240160405180910390fd5b61005e81610084565b50600180546001600160a01b0319166001600160a01b0392909216919091179055610104565b600080546001600160a01b038381166001600160a01b0319831681178455604051919092169283917f8be0079c531659141344cd1fd0a4f28419497f9722a3daafe3b4186f6b6457e09190a35050565b6000602082840312156100e657600080fd5b81516001600160a01b03811681146100fd57600080fd5b9392505050565b610785806101136000396000f3fe6080604052600436106100745760003560e01c80638da5cb5b1161004e5780638da5cb5b146100da5780638e288fd11461010c578063f2fde38b1461012c578063f3fef3a31461014c57600080fd5b80631e186898146100805780636b5e97f8146100ae578063715018a6146100c557600080fd5b3661007b57005b600080fd5b34801561008c57600080fd5b5061009b66071afd498d000081565b6040519081526020015b60405180910390f35b3480156100ba57600080fd5b506100c361016c565b005b3480156100d157600080fd5b506100c3610391565b3480156100e657600080fd5b506000546001600160a01b03165b6040516001600160a01b0390911681526020016100a5565b34801561011857600080fd5b506001546100f4906001600160a01b031681565b34801561013857600080fd5b506100c3610147366004610630565b6103a5565b34801561015857600080fd5b506100c3610167366004610652565b6103e3565b610175476104ea565b66071afd498d00004710156101dc5760405162461bcd60e51b815260206004820152602260248201527f526967676564526f6c6c3a204e6f7420656e6f7567682045544820746f20726f6044820152611b1b60f21b60648201526084015b60405180910390fd5b60006101e960014361067c565b6001546040805163057ff68760e51b815290519240935060009284926001600160a01b031691829163affed0e0916004808201926020929091908290030181865afa15801561023c573d6000803e3d6000fd5b505050506040513d601f19601f8201168201806040525081019061026091906106a3565b6040516020016102959392919092835260609190911b6bffffffffffffffffffffffff19166020830152603482015260540190565b60408051601f198184030181529190528051602090910120905060006102bc6010836106bc565b90506005811161037057600160009054906101000a90046001600160a01b03166001600160a01b0316637d789dee66071afd498d0000620493e0906040518363ffffffff1660e01b81526004016000604051808303818589803b15801561032257600080fd5b5088f1158015610336573d6000803e3d6000fd5b50505050505061036b6040518060400160405280600e81526020016d2937b63632b21030b732102bb7b760911b81525061052f565b505050565b61036b60405180606001604052806023815260200161072d6023913961052f565b610399610572565b6103a3600061059f565b565b6103ad610572565b6001600160a01b0381166103d757604051631e4fbdf760e01b8152600060048201526024016101d3565b6103e08161059f565b50565b6103eb610572565b4781111561043b5760405162461bcd60e51b815260206004820181905260248201527f526967676564526f6c6c3a20496e73756666696369656e742062616c616e636560448201526064016101d3565b6000826001600160a01b03168260405160006040518083038185875af1925050503d8060008114610488576040519150601f19603f3d011682016040523d82523d6000602084013e61048d565b606091505b505090508061036b5760405162461bcd60e51b8152602060048201526024808201527f526967676564526f6c6c3a204661696c656420746f20776974686472617720456044820152633a3432b960e11b60648201526084016101d3565b6103e08160405160240161050091815260200190565b60408051601f198184030181529190526020810180516001600160e01b031663f82c50f160e01b1790526105ef565b6103e08160405160240161054391906106de565b60408051601f198184030181529190526020810180516001600160e01b031663104c13eb60e21b1790526105ef565b6000546001600160a01b031633146103a35760405163118cdaa760e01b81523360048201526024016101d3565b600080546001600160a01b038381166001600160a01b0319831681178455604051919092169283917f8be0079c531659141344cd1fd0a4f28419497f9722a3daafe3b4186f6b6457e09190a35050565b6103e08160006a636f6e736f6c652e6c6f679050600080835160208501845afa505050565b80356001600160a01b038116811461062b57600080fd5b919050565b60006020828403121561064257600080fd5b61064b82610614565b9392505050565b6000806040838503121561066557600080fd5b61066e83610614565b946020939093013593505050565b8181038181111561069d57634e487b7160e01b600052601160045260246000fd5b92915050565b6000602082840312156106b557600080fd5b5051919050565b6000826106d957634e487b7160e01b600052601260045260246000fd5b500690565b600060208083528351808285015260005b8181101561070b578581018301518582016040015282016106ef565b506000604082860101526040601f19601f830116850101925050509291505056fe50726564696374696f6e2069732061206c6f73732e20536b697070696e6720726f6c6ca2646970667358221220b8e5b4b994451d34b149aea8b937634fd36b6b0dbf9c46893ba0e7c10b07bce864736f6c63430008140033",
  "devdoc": {
    "errors": {
      "OwnableInvalidOwner(address)": [
        {
          "details": "The owner is not a valid owner account. (eg. `address(0)`)"
        }
      ],
      "OwnableUnauthorizedAccount(address)": [
        {
          "details": "The caller account is not authorized to perform an operation."
        }
      ]
    },
    "kind": "dev",
    "methods": {
      "owner()": {
        "details": "Returns the address of the current owner."
      },
      "renounceOwnership()": {
        "details": "Leaves the contract without owner. It will not be possible to call `onlyOwner` functions. Can only be called by the current owner. NOTE: Renouncing ownership will leave the contract without an owner, thereby disabling any functionality that is only available to the owner."
      },
      "transferOwnership(address)": {
        "details": "Transfers ownership of the contract to a new account (`newOwner`). Can only be called by the current owner."
      }
    },
    "version": 1
  },
  "userdoc": {
    "kind": "user",
    "methods": {},
    "version": 1
  },
  "storageLayout": {
    "storage": [
      {
        "astId": 8,
        "contract": "contracts/RiggedRoll.sol:RiggedRoll",
        "label": "_owner",
        "offset": 0,
        "slot": "0",
        "type": "t_address"
      },
      {
        "astId": 351,
        "contract": "contracts/RiggedRoll.sol:RiggedRoll",
        "label": "diceGame",
        "offset": 0,
        "slot": "1",
        "type": "t_contract(DiceGame)341"
      }
    ],
    "types": {
      "t_address": {
        "encoding": "inplace",
        "label": "address",
        "numberOfBytes": "20"
      },
      "t_contract(DiceGame)341": {
        "encoding": "inplace",
        "label": "contract DiceGame",
        "numberOfBytes": "20"
      }
    }
  }
}